:1000000000300020E90400005114000051140000E9
:10001000511400005114000051140000511400004C
:10002000511400005114000051140000511400003C
:10003000511400005114000051140000976F00008B
:10004000976F0000976F0000976F0000976F000098
:10005000976F0000976F0000976F0000976F000088
:10006000976F0000976F0000976F0000976F000078
:10007000976F0000976F0000976F0000976F000068
:10008000976F0000976F0000976F0000976F000058
:10009000976F0000976F0000976F0000976F000048
:1000A000976F0000976F0000976F0000976F000038
:1000B000976F0000976F0000976F0000976F000028
:10040000FFFFFFFFFFFFFFFFFFFFFFFFFFE4FEFF18
:1004100010B5064C2378002B07D1054B002B02D0DA
:10042000044800E000BF0123237010BD98F0FF1FB7
:1004300000000000486E000008B5084B002B03D0F8
:100440000748084900E000BF07480368002B03D0B5
:10045000064B002B00D0984708BDC04600000000A6
:10046000486E00009CF0FF1F98F0FF1F0000000086
:10047000164B002B00D1144B9D46402292029A1A33
:10048000924600218B460F461348144A121A06F072
:100490004CF80F4B002B00D098470E4B002B00D090
:1004A00098470020002104000D000D48002802D0CC
:1004B0000C4800E000BF06F009F82000290002F017
:1004C00059FA05F0EDFFC04600000800003000209A
:1004D000000000000000000098F0FF1FA0150020A1
:1004E000000000000000000009480A4908600A49AD
:1004F0000860EFF3088080F30988EFF3148002218D
:10050000084380F31488BFF36F8F02F0CFFBC0461F
:10051000FFFFFFFF80E100E080E200E0002934D02F
:100520000123002210B488422CD301242407A142C5
:1005300004D2814202D209011B01F8E7E400A14282
:1005400004D2814202D249005B00F8E7884201D31D
:10055000401A1A434C08A04202D3001B5C082243F5
:100560008C08A04202D3001B9C082243CC08A04266
:1005700002D3001BDC082243002803D01B0901D052
:100580000909E3E7101C10BC7047002801D00020C7
:10059000C04307B4024802A14018029003BDC04600
:1005A000190000000029F0D003B5FFF7B9FF0EBC19
:1005B0004243891A1847C0467047C0468446081C03
:1005C0006146FFE71FB500F0E3F9002801D40021E0
:1005D000C8421FBD10B500F069F94042013010BD9E
:1005E00010B500F0D5F9002801DB002010BD012076
:1005F00010BDC04610B500F0CBF9002801DD002089
:1006000010BD012010BDC04610B500F079F90028DA
:1006100001DC002010BD012010BDC04610B500F067
:100620006FF9002801DA002010BD012010BDC0467E
:100630009E2110B5C905041CFFF7F0FF002803D167
:10064000201C00F091FC10BD9E21C905201C00F06B
:1006500015FB00F089FC80231B06C018F3E7C04699
:10066000F0B55F4656464D464446F0B44602450056
:10067000C00F85B00F1C760A2D0E804641D0FF2D8D
:1006800026D08024240400212643F6007F3D89469D
:100690008B46F90F7C027800640A000E00918A46AE
:1006A0003CD0FF2834D080231B041C430023E400EB
:1006B0007F380193009F4346019A7B4049469C4600
:1006C00011430F2900D971E0764F89007F58BF464A
:1006D000002E3ED10822022391469B46D9E75A4676
:1006E000341CC24601920199022937D0032900D156
:1006F000CFE0012900D0ABE053460B40002200269A
:1007000032E0002E19D10421012289469346C0E728
:10071000221C531E9A4102320192CBE70127019716
:10072000002CC7D0201C00F08FFC431F9C40762378
:100730005B420021181A0191BCE7301C00F084FCD8
:100740007625431F9E406D4200232D1A99469B46F5
:100750009FE70C23032199468B469AE7D446012351
:1007600067463B40FF2200267602D205700ADB076F
:100770001043184305B03CBC90469946A246AB4690
:10078000F0BD80260023F603FF22EDE700220026BD
:10079000EAE78020C00306423BD0044239D1061C60
:1007A00026437602760A009BFF22DDE7281A039093
:1007B00076016401A64239D3361B1A220123012097
:1007C000311C5B007600002901DBB44201D8361BE6
:1007D0000343013A002AF3DC741EA641341C1C4377
:1007E000039A7F32002A27DD630704D00F232340BA
:1007F000042B00D00434270103D52B4B039A1C4053
:100800008032FE2A0BDD012361460B40FF220026C9
:10081000AAE706437602760A4346FF22A4E7A4012C
:1008200001236746660AD2B23B409DE7039F1B2225
:10083000013F03970023C2E77E23039F5B42DB1B3C
:100840001B2B07DD012361460B40002200268BE7AE
:10085000D446C5E7221CDA40039B9E339C40231CF0
:100860005C1EA34113435A0704D00F221A40042AE6
:1008700000D004335F0105D5012361460B400122FE
:10088000002671E79E01624601231340760A00228A
:100890006AE78026F60326437602760A5346FF224D
:1008A00062E7C046B4680000FFFFFFF74A02430258
:1008B00070B55C0A550A43004A001B0EC60F120EA3
:1008C000C90FFF2B05D0FF2A08D0012093420BD07F
:1008D00070BD0120002CFBD1FF2AF6D10120002D94
:1008E000F6D101209342F3D1AC42F1D18E4205D032
:1008F000002BEDD1201C441EA041E9E70020E7E7D2
:100900004A024302F0B55C0A550A43004A001B0E36
:10091000C60F120EC90FFF2B31D0FF2A34D0002B87
:1009200016D1604260418446002A14D0002820D1AC
:100930008E4217D1934215DC04DBAC4212D8002062
:10094000AC4212D2704270414042012318430CE085
:10095000002AEDD194466F426F416046002805D1D0
:10096000002FE5D0704201231843F0BD0020002F76
:10097000FBD148424841404201231843F5E7002C8F
:10098000CBD002204042F0E7002DC8D0F9E7C046A6
:100990004A024302F0B55C0A550A43004A001B0EA6
:1009A000C60F120EC90FFF2B27D0FF2A29D0002B0C
:1009B00010D0002A15D194466F426F41604600283E
:1009C00015D00020002F04D1484248414042012365
:1009D0001843F0BD604260418446002AECD00028F4
:1009E000F2D18E4211D0704201231843F1E7002F5B
:1009F000F7D0704201231843EBE70220002CE8D126
:100A0000D3E70220002DE4D1D1E79342EBDC04DBF5
:100A1000AC42E8D80020AC42DBD270427041404288
:100A200001231843D5E7C046F0B55F4656464D460C
:100A30004446F0B44402460083B00F1C640A360EEC
:100A4000C50F002E41D0FF2E22D080231B04002092
:100A50001C43E4007F3E82468046391C4B007F02E7
:100A6000C90F7F0A1B0E8B463BD0FF2B34D0802250
:100A700012041743FF007F3B00215A466A4001924F
:100A800052460A430F2A63D87A4892008258974602
:100A9000002C3FD10822022392469846DDE70195BB
:100AA000404602282AD1019A01251540FF2300243F
:100AB0006402DB05600AED071843284303B03CBC21
:100AC00090469946A246AB46F0BD002C27D10420A3
:100AD000012282469046C0E7391C4A1E91410231EC
:100AE000CBE70121002FC8D0381C00F0ADFA431F1E
:100AF0009F4076235B421B1A0021BEE7032800D1EA
:100B0000AEE001284FD1019842461040C5B2002303
:100B10000024CDE70C2303209A4680469DE7201C45
:100B200000F092FA7626431F9C4076420023361A44
:100B30009A46984691E780240025E403FF23B7E70F
:100B40005B463C1C01938846AAE73C1C8846A7E705
:100B5000250C24043A0C240C3F04F6183F0C211CED
:100B6000231C794353436F435543FB180A0C9B18CE
:100B7000B1469F4202D980225202AD1809041A04DC
:100B8000090C521894011B0C611E8C41920EED1839
:100B90001443AD012C43230105D501226308012034
:100BA000144081441C434B467F33002B2DDD6007EE
:100BB00004D00F222240042A00D00434220103D59D
:100BC0002D4B1C404B468033FE2B17DD019B01252E
:100BD0001D400024FF236BE78020C003044208D09F
:100BE000074206D1041C3C436402640A5D46FF23AD
:100BF0005EE704436402640AFF2359E70198A401F5
:100C00000125640ADBB2054052E77E235B424A4677
:100C10009B1A1B2B05DD019B01251D400024002391
:100C200046E7221CDA404B469E339C40231C5C1E48
:100C3000A3411343580704D00F221A40042A00D0BE
:100C400004335A0105D5019B01251D4000240123D1
:100C50002EE701989C010125640A0540002327E73F
:100C60008027FF03019B3C43640201251D40640A69
:100C7000FF231DE7F4680000FFFFFFF7F8B5C20F80
:100C8000430244004D024800240E161C9B09000E2E
:100C9000C90FAD09FF2800D183E0012779408A42BE
:100CA0005CD0221A002A00DC8EE000281ED1002D24
:100CB00000D07AE0580704D00F221A40042A00D04E
:100CC00004338021C90401221940324000293AD05E
:100CD0000134FF2C00D183E09B015B0A5B02E4B28C
:100CE000E405580AD20720431043F8BDFF2CE1D099
:100CF0008021C9040D431B2A00DD31E1291C20207D
:100D0000D140821A95406A1E95410D435B1B5801E4
:100D1000D0D59B019F09381C00F096F9421F9740DF
:100D200094425FDC141B1F231B1B3A1C9F40611C59
:100D30003B1CCA405F1EBB4113430024BAE7131E8D
:100D4000B8D100230022DB08FF2C04D1002B47D0B0
:100D50008020C00303435B025B0ABFE7211A00291E
:100D600044DD002827D0FF2CA4D08020C0040543F8
:100D70001B2900DDF2E0281C2027C840791A8D408D
:100D8000691E8D4105435B19590100D492E7013476
:100D9000FF2C59D0734901221A400B405B081343C2
:100DA00088E7002D00D07AE777E7013A002AADD036
:100DB000FF2CA0D17EE7002D00D17BE7013900296F
:100DC000E1D0FF2CD4D175E7002A1BD1621CD2B22E
:100DD000012A4BDD5F1B7A0123D5EF1A0E1C9AE71F
:100DE00000237BE75F4BA41A3B4063E7002946D111
:100DF000611CC8B2012829DDFF2924D0EB185B084B
:100E00000C1C57E7002C13D0FF2818D08024E404D2
:100E1000524223431B2A4DDD0123EB1A041C0E1CF6
:100E200075E7002F00D076E70023002200248AE730
:100E3000002B3BD0D243002AEFD0FF28EAD12B1C55
:100E4000FF240E1C36E7FF2400237CE7002C5CD136
:100E5000002B00D180E0002D00D12BE75B19580159
:100E600000D427E73F4A0124134023E7002C15D183
:100E7000002B40D1002D63D02B1C0E1C1AE7002C38
:100E800021D1002B54D0C943002904D0FF284CD0D5
:100E90001B2958DD01235B19041C75E7002B19D1B0
:100EA000002D48D02B1C0E1CFF2403E72B1C041C18
:100EB0000E1CFFE61C1C2026D440B21A93405A1E7A
:100EC00093412343A9E7FF282FD08024E40449421B
:100ED0002343DDE7FF24002D00D1EBE68022DB0871
:100EE000D203134204D0ED08154201D12B1C0E1C75
:100EF000DB00FF24DEE6002D00D1DBE65A1B5001AB
:100F000000D41CE7EB1A0E1CD4E6002B0DD0FF24F6
:100F1000002D00D1CEE68022DB08D2031342E7D0B9
:100F2000ED081542E4D12B1CE2E72B1CFF24C1E69F
:100F30002B1C041CBEE6802300229B04FF2402E736
:100F4000231C0022FFE61C1C2027CC40791A8B4072
:100F5000591E8B4123439EE72B1CABE6012512E76C
:100F60000125D3E6FFFFFFFB4302590A4300C20FEE
:100F70001B0E00207E2B0DDD9D2B0CDC8020000441
:100F80000143952B0ADC9620C31AD9404842002A17
:100F900000D1081C7047034BD018FBE7963B9940E3
:100FA000F4E7C046FFFFFF7F10B5041E33D000F00A
:100FB0004BF89E231B1A962B09DC083884406402E8
:100FC000640ADBB26402DB05600A184310BD992B8A
:100FD0000ADD0522121A211CD1400A1C011C1B31FA
:100FE0008C40611E8C411443052801DD421F944052
:100FF000144A2240610704D00F210C40042C00D079
:10100000043251010AD59F23181AFF2816D09401E3
:10101000640AC3B2D6E700230024D3E7D208FF2B2B
:1010200003D05402640ADBB2CCE7002A06D0802445
:10103000E40314436402640AFF23C3E7FF2300248C
:10104000C0E7C046FFFFFFFB1C2101231B049842A1
:1010500001D3000C10391B0A984201D3000A083949
:101060001B09984201D30009043902A2105C401800
:101070007047C046040302020101010100000000A4
:101080000000000002780B7801300131002A01D005
:101090009A42F7D0D01A704780B500AF0C4A0D497C
:1010A0000D4BD1500D4B03229A800C4B01225A70EC
:1010B0000A4B20221A700A4B802252045A620020E6
:1010C00000F072F8064B882252045A62BD4680BD79
:1010D00000E000E000000000080D000000200540D6
:1010E0000080044080B500AF124B181C02F0CEFB0C
:1010F000031C002B00D0FEE70F4B0F4A52698021E2
:1011000089010A435A610C4B0B4A526802210A4377
:101110005A60094B084A526804210A435A60064B38
:10112000054A526808210A435A6004F0E7F862B69B
:10113000BD4680BDBC6C00000080044080B500AF9F
:10114000184B1B78DBB21A1CC0231340402B0ED067
:10115000802B17D0002B20D1124B1B78DBB21A1C2E
:101160000423134001D1032318E0002316E00D4BA4
:101170005B78DBB21A1C1023134001D101230DE070
:1011800002230BE0074B5B78DBB21A1C10231340E1
:1011900001D1042302E0052300E00023181CBD4612
:1011A00080BDC0460040064090B58BB000AF021C29
:1011B0003B1C17331A703B1C173319783B1C243324
:1011C000924A09018A5A1A803C1C2634FFF7B6FF5E
:1011D000031C23803B1C26331A880F231A403B1C18
:1011E000243319880F230C1C1C40391C26318848D5
:1011F000131C5B009B185B001B195B001B5A0B80C8
:101200003B1C26331A883B1C243319880F230B40C0
:101210009A4212D13B1C17331B783A1C1C327B4874
:10122000190102234118CB18111C1A1C0523081C94
:10123000111C1A1C05F070F911E03B1C26331A88AA
:101240000F231A40734B9200D3583A1C1C32111CC6
:101250001A1C0523081C111C1A1C05F05DF93B1C07
:1012600026331A880F231340052B00D998E09A00E3
:10127000694BD3181B689F46684B3A1C1C32127886
:101280001A70C046654B1B79DBB21A1C1023134041
:10129000F8D0624B3A1C1C3252785A705F4B3A1CA1
:1012A0001C32927801218A43D1B25C4AD278D0B202
:1012B00001220240D2B20A43D2B2DA70584B3A1C31
:1012C0001C3212791A706CE0544B3A1C1C321278A2
:1012D0001A70C046514B1B79DBB21A1C1023134005
:1012E000F8D04E4B3A1C1C3252785A704C4B3A1C78
:1012F0001C3212791A7054E0484B3A1C1C32527856
:101300005A70474B3A1C1C3212791A70434B3A1CE4
:101310001C3212781A703B1C24331A888023134025
:1013200007D0C0463E4B1B78DBB21A1C012313408A
:10133000F8D0C046394B1B79DBB21A1C102313407E
:10134000F8D1364B3A1C1C32927801218A43D1B233
:10135000324AD278D0B201220240D2B20A43D2B28B
:10136000DA701EE02D4B3A1C1C3212781A702B4B8F
:101370003A1C1C3252785A70294B3A1C1C32127992
:101380001A703B1C24331A888023134007D0C046B0
:10139000234B1B78DBB21A1C01231340F8D000E06A
:1013A000C0463B1C26331B88052B21D89A001D4BB9
:1013B000D3181B689F46C046184B1B79DBB21A1C1A
:1013C0000C231340F8D113E0C046144B1B79DBB259
:1013D0001A1C0C231340042BF7D109E0C0460F4B15
:1013E0001B79DBB21A1C0C231340082BF7D1C04623
:1013F0003B1C26331A883B1C243319880F230B40CF
:101400009A4200D0E6E6BD460BB090BD7C69000074
:1014100034690000BC690000D46900000040064047
:1014200000500640EC69000080B500AF054A054950
:10143000054BCB581B041B0C04491943024BD150DC
:10144000FEE7C04600E000E00C0D00000400FA05D5
:1014500080B500AFFFBEBD4680BDC04680B582B03E
:1014600000AF021CFB1D1A702D4B1B682D4AF91D85
:101470000978D1542A4B1B682A4AD35C5BB20A2BE9
:101480000FD1274B1B68013B264AD35C5BB20D2B67
:1014900007D1234B00221A60234B181C01F0E4FFF4
:1014A0003BE01F4B1B681F4AD35C5BB2642B28D107
:1014B0001B4B1B68013B1B4AD35C5BB26E2B20D1DC
:1014C000174B1B68023B174AD35C5BB2652B18D1E4
:1014D000134B1B68134A0021D154114B1B68013B6D
:1014E000104A0A21D1540E4B1B68023B0D4A0D21B4
:1014F000D1540D4B181C01F0B7FF094B00221A60A4
:101500000BE0074B1B685A1C054B1A60044B1B6809
:10151000F92B02D9024B00221A60BD4602B080BDF1
:10152000B8F0FF1F10F5FF1F7CF7FF1F80B588B0D4
:1015300000AF786039600023FB610A23BB6101239F
:101540007B6100233B617B681B78302B0BD17B6870
:1015500001331B78782B06D11023BB6101237B61FB
:101560000223FB610BE07B681B782D2B07D10A233C
:10157000BB6101235B427B610123FB6162E061E0AF
:101580007A68FB69D3181B78202B5FD07A68FB69D7
:10159000D3181B780D2B59D03B69BA6953433B6173
:1015A0002F4B1A687968FB69CB181B780133D31865
:1015B0001B78DBB21A1C0423134008D07A68FB693D
:1015C000D3181B78303B3A69D3183B6137E0244B82
:1015D0001A687968FB69CB181B780133D3181B781C
:1015E000DBB21A1C4423134021D07A68FB69D2185D
:1015F0003B1C0F3312781A70194B1A683B1C0F33BF
:101600001B780133D3181B78DBB21A1C0323134059
:10161000012B04D13B1C0F331B78203302E03B1C11
:101620000F331B78573B3A69D3183B6107E07A6860
:10163000FB69D3181B78303B3A69D3183B61FB69CF
:101640000133FB61FA693B689A4299D33B697A6935
:1016500053433B613B69181CBD4608B080BDC04682
:1016600034F0FF1F80B584B000AF7860396000238C
:10167000FB600023BB6078E0524B1A683968BB6896
:10168000CB181B785BB20133D3181B785AB297235F
:1016900013400CD0FB685A1CFA607A68D218BB68F9
:1016A000591CB9603968CB181B7813705DE03A6833
:1016B000BB68D3181B785BB2082B02D01B2B0AD057
:1016C0004FE0FB68002B02D0FB68013BFB60BB686E
:1016D0000133BB6049E0BB6801333A68D3181B781B
:1016E0005BB25B2B38D1BB6802333A68D3181B78E6
:1016F0005BB2412B07D0BB6802333A68D3181B7822
:101700005BB2422B03D1BB680333BB6028E0BB68EC
:1017100002333A68D3181B785BB2432B06D1FB68BF
:101720000133FB60BB680333BB6019E0BB68023365
:101730003A68D3181B785BB2442B09D1FB68002BA5
:1017400002D0FB68013BFB60BB680333BB6007E072
:10175000BB680333BB6003E0BB680133BB6004E0DC
:1017600003E0BB680133BB60C0463A68BB68D3186E
:101770001B785BB20D2B08D0BB6801333A68D318D5
:101780001B785BB20A2B00D076E7FB685A1CFA6024
:101790007A68D218BB68591CB9603968CB181B78B5
:1017A0001370FB685A1CFA607A68D218BB68591C1F
:1017B000B9603968CB181B781370FB68181CBD46DC
:1017C00004B080BD34F0FF1F80B5A4B000AF7860D6
:1017D000396000238820C019036000238421C919BF
:1017E0000B6000238C22D219136041E07A688C20B0
:1017F000C0190368D3181B785BB2202B04D10123D6
:101800008821C9190B602CE07A688C20C019036804
:10181000D3181B785BB20D2B00D12FE08821C9199A
:101820000B68012B1DD100238822D219136084205C
:10183000C01903681D2B11D83B1C0C338421C91916
:101840000A6892008C20C0190168D1508421C919FE
:101850000B6801338422D219136002E001235B423A
:1018600042E08C20C019036801338C21C9190B6038
:101870008C23DB191A683B689A42B7D300238C206B
:10188000C019036025E03B1C0C338C21C9190A6880
:101890009200D3587A68D2183B1C0C338C20C019A4
:1018A00001688900CB583968CB1A101C191CFFF746
:1018B0003DFE021C0E498C20C01903687C339B003E
:1018C000CB185A608C21C9190B6801338C22D219AC
:1018D00013608C23DB191A688420C01903689A42AC
:1018E000D1D38421C9190B68181CBD4624B080BD12
:1018F00010F5FF1F80B500AFFFF796FDBD4680BD18
:1019000080B584B000AF786039600023FB603B1C79
:101910000B3300221A703B1C0B331B78034A101C3C
:10192000191C00F05DFEBD4604B080BD506500008E
:1019300090B585B000AF78603960104B181C00F08E
:101940004FFE3C1C0F340E4A80239B00101C191CB8
:101950001D2204F0C9FC031C23703B1C0F331B78B1
:10196000084A101C191C00F03BFE054B181C1D21D9
:1019700000F092FFBD4605B090BDC0466465000012
:1019800000F0FF1F7865000090B58BB000AF786065
:1019900039603C1C273480239A003B1C0833101C00
:1019A000191C1D2204F0B6FC031C23703B1C2733BA
:1019B0001B78074A101C191C00F012FE3B1C083350
:1019C000181C1D2100F068FFBD460BB090BDC0463D
:1019D0008C65000080B584B000AF786039603B68EA
:1019E000FB607B68032B10D1FB681B68DAB20E4BDF
:1019F0001A72FB6804331B68DAB20B4B5A72FB682D
:101A000008331B68DAB2084B9A72074B1B7A191C11
:101A1000054B5B7A1A1C044B9B7A044800F0E0FDEE
:101A2000BD4604B080BDC04600F0FF1FA0650000A9
:101A300080B582B000AF786039600C4B1B78012212
:101A4000D31ADAB2094B1A70094B1A6A074B1B7882
:101A5000101C191C03F0D0FB044B1B78054A101C0A
:101A6000191C00F0BDFDBD4602B080BDB5F0FF1FE2
:101A7000F8F2FF1FB865000080B584B000AF786051
:101A800039603B1C0E3300221A803B1C0C330922A8
:101A90001A803B1C0E3300221A801EE03B1C0E33C2
:101AA0001B88134A1B01D31859683B1C0E331A8834
:101AB0000F4B1201D2583B1C0E331B880C481B01E4
:101AC000C31808335B680B4800F08AFD3B1C0E33DB
:101AD0001A883B1C0E3301321A803A1C0E323B1C12
:101AE0000C3312881B889A42D8D3BD4604B080BDFF
:101AF000046A00004C66000080B586B000AF434B1E
:101B0000181C002101F09EFC404B181C01F056FDF2
:101B10003F4A404B101C191CFFF7A4FD031C3B61FE
:101B200000237B6127E07B69002B17D03949F8231C
:101B30007A698A18D3189B785BB2202B08D0354974
:101B4000F8237A698A18D3189B785BB20D2B05D1DC
:101B50003A1C7B69D31800221A700FE02D49F82334
:101B60007A698A18D3189A78391C7B69CB181A704D
:101B70007B6901337B617B69092BD4D97B691A1C92
:101B8000F832244BD3189A1C3B69101C191CFFF720
:101B90001BFE031CFB6000237B612AE01E4B7A695D
:101BA0001201D3583A1C101C191CFFF76BFA031CC6
:101BB000002B1BD1FB68002B07DB174A7B691B013D
:101BC000D3185A68FB689A4204DA144B181C00F0C8
:101BD00007FD11E0104A7B691B01D31808331B680D
:101BE000F9680F4A081C111C984705E07B6901330E
:101BF0007B617B69082BD1D97B69082B04D9094B00
:101C0000181C00F0EDFC7FE77EE7C0467CF7FF1F65
:101C10000AF6FF1F10F5FF1F046A0000706600003F
:101C200004F7FF1F8066000090B585B000AF7860B4
:101C30003B1C0F3300221A703B1C0E337A6852781B
:101C40001A707B681B780A2B02D97B6801221A70F4
:101C50003B1C0E331A787B6818786749131CDB002D
:101C60009B1A9B009B18021C5A543B1C0E331A787B
:101C70007B6899786048131CDB009B1A9B009B18BB
:101C8000C3180A1C9A703B1C0E331A787B68D978EB
:101C90005948131CDB009B1A9B009B18C3180A1C95
:101CA000DA707B6804331B78082B0DD83B1C0E338D
:101CB0001A787B6819795048131CDB009B1A9B002B
:101CC0009B18C3180A1C1A713B1C0E331A787B68C8
:101CD00059794948131CDB009B1A9B009B18C318B9
:101CE0000A1C5A713B1C0E331A787B68997942485A
:101CF000131CDB009B1A9B009B18C3180A1C9A71CB
:101D00003B1C0E331A787B68D9793B48131CDB00E7
:101D10009B1A9B009B18C3180A1CDA713B1C0F33DB
:101D200000221A701EE03B1C0E331A783B1C0F3346
:101D300018783B1C0F331B7808337968CB18197857
:101D40002D4C131CDB009B1A9B009B18E3181B18DF
:101D500008330A1CDA703B1C0F331A783B1C0F3314
:101D600001321A703B1C0F331B78112BDBD93B1C43
:101D70000E331A78131CDB009B1A9B009B181E4A1B
:101D800099183B1C0E331A78131CDB009B1A9B001E
:101D90009B18802292009B183C1C0D34081C191CB7
:101DA0001D2204F0A1FA031C23703B1C0E331A7889
:101DB000131CDB009B1A9B009B18802189005A187A
:101DC0003B1C0D331B780D49081C111C1D2200F013
:101DD00007FC3B1C0E331A78131CDB009B1A9B007C
:101DE0009B18802292009B18181C1D2100F054FDA6
:101DF000BD4605B090BDC04698F7FF1F18670000AC
:101E000080B58AB000AF374A374B111C1A1C1D230E
:101E1000081C111C1A1C04F07FFB00233B6280236A
:101E20009B001B78002B59D080239B001B78092B2B
:101E300054D83B1C263300221A8047E03B6A80229C
:101E400092009B183A1C111C1A1C1D23081C111C03
:101E50001A1C04F061FB3B6A802292009B18181C3C
:101E60001D2100F019FD3B6A1D333B623B1C1B78B2
:101E7000002B09D03B1C1B780A2B05D83B1C1A7879
:101E80003B1C5B789A4204D8184B181C00F0A8FB46
:101E900024E03B1C26331A881249131CDB009B1AD2
:101EA0009B009B183A1CC9181D23081C111C1A1CE6
:101EB00004F032FB3B1C181C1D2100F0EDFC3B1C08
:101EC00026331A883B1C263301321A8080239B005C
:101ED0001B783A1C263212889A42AFD3BD460AB00C
:101EE00080BDC04698F7FF1F00F0FF1F4467000049
:101EF000F0B5474680B486B004AFFB1D00221A70CF
:101F0000FFF77EFFFB1D00221A70B8E0FB1D197859
:101F1000744A0B1CDB005B1A9B005B18995CD018A1
:101F2000407800020143D018807800040143D018A3
:101F3000C07800060143002080468846D118087901
:101F40004C79240220438C7924042043C979090662
:101F5000014300260E1CD118087A4C7A2402204333
:101F60008C7A24042043C97A0906014300250D1CFC
:101F7000D118087B4C7B240220438C7B2404204313
:101F8000C97B0906014300240C1C1021D3185B18DF
:101F90006A46111C1A1C0D23081C111C1A1C04F083
:101FA000BBFA4046311C2A1C231C00F041F9FB1DE2
:101FB0001A784C49131CDB009B1A9B009B18CB180A
:101FC000DB781A1C131C9B009B189B00181C02F04A
:101FD00071F9FB1D1978434A0B1CDB005B1A9B004F
:101FE0005B18995CD018407800020143D0188078C3
:101FF00000040143D018C078000601430020804649
:102000008846D11808794C79240220438C7924041D
:102010002043C9790906014300260E1CD118087A0D
:102020004C7A240220438C7A24042043C97A09067E
:10203000014300250D1CD118087B4C7B2402204352
:102040008C7B24042043C97B0906014300240C1C1B
:102050001021D3185B186A46111C1A1C0D23081C8A
:10206000111C1A1C04F058FA4046311C2A1C231C6F
:1020700000F0AAF9FB1D1A78FB1D01321A70194BEA
:102080001B78FA1D12789A4200D23FE7154B1B7855
:10209000154A101C191C00F0A3FAFB1D00221A702F
:1020A00018E0FB1D1B78114A101C191C00F098FA4F
:1020B000FB1D1A78131CDB009B1A9B009B18094A16
:1020C0009B18181C1D2100F0E7FBFB1D1A78FB1D57
:1020D00001321A70034B1B78FA1D12789A42E0D332
:1020E00010E7C04698F7FF1F6067000070670000A8
:1020F00080B584B000AF021CFB1D1A703B1C0F336F
:1021000000221A7020E0FB1D1B785BB2002B05DA61
:10211000114B1B68114A0021D15404E00E4B1B687F
:102120000E4A0F21D1540C4B1B685A1C0A4B1A60E3
:10213000FA1DFB1D1B78DB1813703B1C0F331A783C
:102140003B1C0F3301321A703B1C0F331B78072BDB
:10215000D9D9BD4604B080BDBCF0FF1FBCF8FF1F3D
:1021600080B582B000AF3B1D18603B1D5B78181C2A
:10217000FFF7BEFF3B1D1B78181CFFF7B9FF3B1D87
:102180009B78181CFFF7B4FFBD4602B080BDC04667
:1021900084B090B585B000AF3C1C203420606160F5
:1021A000A260E360BB1D00221A703B1C00221A7063
:1021B0003B1C00225A703B1C00229A701B4B0022D1
:1021C0001A600023FB6027E0FB1D391C2031FA68F0
:1021D0008A180832D2781A700023BB6016E0FB1D03
:1021E0001B785BB2002B05DA3B1C20339868FFF7A5
:1021F000B7FF03E03B1C1868FFF7B2FFFA1DFB1D99
:102200001B78DB181370BB680133BB60BB68072BFE
:10221000E5D9FB680133FB60FB68112BD4D9BD46BF
:1022200005B090BC08BC04B01847C046BCF0FF1F06
:1022300084B0B0B586B004AF3C1C18342060616037
:10224000A260E36000237B6000233B603B1C1833EB
:102250009B78002B03D0012B00D17DE0A8E0002368
:102260007B6075E03B1C18335B79181CFEF79CFE05
:10227000041C7868FEF798FE031C201C191CFEF74E
:10228000D3FB031C181C4D49FEF7EAF9031C181C6C
:10229000FEF7CEF9031CDAB23B1C18331A723B1C52
:1022A00018339B79181CFEF77FFE041C7868FEF734
:1022B0007BFE031C201C191CFEF7B6FB031C181C1C
:1022C0003E49FEF7CDF9031C181CFEF7B1F9031CBB
:1022D000DAB23B1C18335A723B1C1833DB79181CDA
:1022E000FEF762FE041C7868FEF75EFE031C201CED
:1022F000191CFEF799FB031C181C3049FEF7B0F9B6
:10230000031C181CFEF794F9031CDAB23B1C1833AB
:102310009A723B1C18336A46191C103131C931C2FC
:1023200009781170186859689A68DB68FFF730FF00
:10233000234B5969234AD8231B01081C111C1A1C62
:1023400003F09AFB022001F0B5FF7B6801337B604C
:102350007B68272B86D92BE03B1C18335A793B1C12
:1023600018331A723B1C18339A793B1C18335A7273
:102370003B1C1833DA793B1C18339A723B1C183318
:102380006A46191C103131C931C2097811701868B8
:1023900059689A68DB68FFF7FBFE094B5969094ADF
:1023A000D8231B01081C111C1A1C03F065FBC04636
:1023B000BD4602B0B0BC08BC04B0184700002042C3
:1023C000F8F2FF1FBCF8FF1F84B0B0B586B004AFB1
:1023D0003C1C183420606160A260E36000233B6015
:1023E00000237B603B1C18339B78002B03D0012B10
:1023F00000D187E09CE000237B607EE03B1C18332B
:102400005B79181CFEF7D0FD041C7B681322D31ADD
:10241000181CFEF7C9FD031C201C191CFEF704FB49
:10242000031C181C4549FEF71BF9031C181CFEF77A
:10243000FFF8031CDAB23B1C18331A723B1C18332A
:102440009B79181CFEF7B0FD041C7B681322D31A7D
:10245000181CFEF7A9FD031C201C191CFEF7E4FA4A
:10246000031C181C3549FEF7FBF8031C181CFEF76B
:10247000DFF8031CDAB23B1C18335A723B1C1833CA
:10248000DB79181CFEF790FD041C7B681322D31A1D
:10249000181CFEF789FD031C201C191CFEF7C4FA4A
:1024A000031C181C2549FEF7DBF8031C181CFEF75B
:1024B000BFF8031CDAB23B1C18339A723B1C18336A
:1024C0006A46191C103131C931C209781170186877
:1024D00059689A68DB68FFF75BFE194B5969194A1E
:1024E000D8231B01081C111C1A1C03F0C5FA02207A
:1024F00001F0E0FE7B6801337B607B68132B00D822
:102500007CE715E00F4AD8231B01101C0F211A1C71
:1025100004F00BF80A4B59690A4AD8231B01081C1E
:10252000111C1A1C03F0A8FA022001F0C3FEC046D9
:10253000BD4602B0B0BC08BC04B018470000A041C2
:10254000F8F2FF1FBCF8FF1F80B58CB000AF7860B9
:1025500039603B68BB623B1C2F3300221A7014E0C9
:102560003B1C2F331A783B1C2F331B789B00B96A16
:10257000CB181B68D9B23B1C0C3399543B1C2F332E
:102580001A783B1C2F3301321A703B1C2F331A78F8
:102590007B689A42E4DB3B1C0C33181CFFF744FBBE
:1025A000BD460CB080BDC04680B584B000AF786039
:1025B0003960C04603F0C0FC031C002BFAD13B6815
:1025C0009AB279683B1C0E33081C111C1A1C03F0CC
:1025D00015FC3B1C0E331B88181CBD4604B080BD87
:1025E0000FB4B0B592B000AF3B1C5C337B603FE1F1
:1025F00000237B6402E07B6C01337B64BA6D7B6CEF
:10260000D3181B78252B05D0BA6D7B6CD3181B789B
:10261000002BF0D1BA6D7B6C101C191CFFF7C4FFA6
:10262000BA6D7B6CD318BB65BB6D1B78252B00D0B6
:102630001EE1BB6D0133BB650023FB633B1C3333E1
:1026400020221A70BB6D5A1CBA651B78253B532B90
:1026500000D907E19A008C4BD3181B689F46BB6DCD
:10266000013B1B78302B06D1FB6B002B03D13B1CAD
:10267000333330221A70FA6B131C9B009B185B00DB
:10268000FB63BB6D013B1B781A1CFB6BD318303B03
:10269000FB63D7E77B681A1D7A601B68BB623B1C33
:1026A0002833181C0121FFF77FFFE1E07B681A1D2A
:1026B0007A601B68BB6200233B64BB6A002B05DAAF
:1026C000BB6A5B42BB6201237B6301E000237B6347
:1026D0000A23BB6341E07B681A1D7A601B68FB62BA
:1026E00000237B6402E07B6C01337B64FA6A7B6CC1
:1026F000D3181B78002BF6D1FA6A7B6C101C191CBE
:10270000FFF752FFFA6B7B6C9A420ED9FA6B7B6C27
:10271000D31AFB6304E05D4B181C0121FFF744FF53
:10272000FB6B5A1EFA63002BF5D1A1E07B681A1DE2
:102730007A601B68BB6200233B640A23BB630023EF
:102740007B630AE07B681A1D7A601B68BB6200230A
:102750003B641023BB6300237B6301237B6406E09F
:102760007B6CBA6B53437B64FB6B013BFB637B6C01
:10277000BA6B5A43BB6A9A420BD87B6CBA6B534311
:10278000181CB96BFDF7CAFE031C1A1C7B6C9A421D
:10279000E6D07B6B002B02D0FB6B013BFB637B6BBA
:1027A000002B0DD03B1C33331B78302B08D13B6CF6
:1027B0005A1C3A643A1C08322D21D15400237B6301
:1027C000FB6B012B15D9FB6B0F2B12D8FB6B013B5D
:1027D000FB630BE03B6C5A1C3A643A1C0832391C10
:1027E00033310978D154FB6B013BFB63FB6B002B4E
:1027F000F0D17B6B002B07D03B6C5A1C3A643A1C1F
:1028000008322D21D1541BE01AE03C6C631C3B6460
:102810001F4DBB6A181C796CFDF780FE031C181C49
:10282000B96BFDF7BFFE0B1CEB181B78DAB23B1C33
:1028300008331A55786CB96BFDF770FE031C7B6486
:102840007B6C002BE1D13A1C08323B6C101C191C2C
:10285000FFF7AAFE0CE0BB6D013B181C0121FFF73E
:10286000A3FE05E00B4B181C0521FFF79DFEC0469B
:10287000BB6D1B78002B00D0BAE6BD4612B0B0BCD1
:1028800008BC04B01847C046946A00009067000076
:102890007C6700009467000080B584B000AF78606A
:1028A0000A1CFB1C1A70144B181CFFF799FE3B1CEA
:1028B0000F3300221A7011E03B1C0F331B787A682B
:1028C000D3181B780D4A101C191CFFF789FE3B1CFE
:1028D0000F331A783B1C0F3301321A703A1C0F3237
:1028E000FB1C12781B789A42E6D3054B181CFFF7A5
:1028F00077FEBD4604B080BD9C670000A467000061
:10290000A867000080B500AFBD4680BD80B582B02D
:1029100000AF7860BD4602B080BDC04680B582B0D1
:1029200000AF7860BD4602B080BDC04680B582B0C1
:1029300000AFFB1D181C02F021FAFB1D1B78181CB0
:10294000FEF78CFDBD4602B080BDC04680B500AF2D
:10295000BD4680BD80B582B000AFFB1D181C03F0E2
:10296000D9F9FB1D1B78181CFEF778FDBD4602B097
:1029700080BDC04680B500AFFEF7B4FB01F012F891
:10298000FEE7C04680B584B000AF78600023FB60EE
:102990003B1C0A3300221A80044B181CFFF720FE50
:1029A000FB680133FB60FFF7A7F8F9E7AC670000AD
:1029B000F0B5474680B486B004AF7860534AD82358
:1029C0001B01101C0F211A1C03F0AFFD504B59695D
:1029D0004E4AD8231B01081C111C1A1C03F04CF88A
:1029E0004C4B1A78597809020A43997809040A432A
:1029F000D97809060A430021884690461A79597900
:102A000009020A43997909040A43D97909060A4354
:102A10000026161C1A7A597A09020A43997A09047F
:102A20000A43D97A09060A430025151C1A7B597BEB
:102A300009020A43997B09040A43D97B09060A4320
:102A40000024141C6A46111C1A1C10320D23081C89
:102A5000111C1A1C03F060FD4046311C2A1C231C6B
:102A6000FFF7E6FB2B4BDB781A1C131C9B009B1813
:102A70009B00181C01F01EFC264B1A78597809029D
:102A80000A43997809040A43D97809060A430021C0
:102A9000884690461A79597909020A4399790904B6
:102AA0000A43D97909060A430026161C1A7A597A6C
:102AB00009020A43997A09040A43D97A09060A43A2
:102AC0000025151C1A7B597B09020A43997B0904CE
:102AD0000A43D97B09060A430024141C6A46111CC8
:102AE0001A1C10320D23081C111C1A1C03F014FDB3
:102AF0004046311C2A1C231CFFF766FCFFF7F8F93F
:102B0000BD4602B004BC9046F0BDC046BCF8FF1FF5
:102B1000F8F2FF1F00F0FF1F80B582B000AF7860B1
:102B2000FA239B00181C01F0C5FBF9E780B58AB0B9
:102B300000AFF860B9607A607B687B6204233B6217
:102B40000323FB610223BB6101237B6101233B6102
:102B5000FA68BB689A4202D07B68002B00D14DE036
:102B600049E0BB68FA69134018D1FB68FA69134061
:102B700014D17A6A3B6A9A4210D3FB68BA68126829
:102B80001A60FA683B6AD318FB60BA683B6AD318CC
:102B9000BB607A6A3B6AD31A7B622CE0BB687A69B5
:102BA000134018D1FB687A69134014D17A6ABB6963
:102BB0009A4210D3FB68BA6812881A80FA68BB6917
:102BC000D318FB60BA68BB69D318BB607A6ABB696B
:102BD000D31A7B620FE0FB68BA6812781A70FA6841
:102BE0003B69D318FB60BA683B69D318BB607A6A4B
:102BF0003B69D31A7B627B6A002BB2D1BD460AB017
:102C000080BDC04690B583B000AF234B002B00D1F0
:102C10003EE000237B601DE01F497A68131C5B00C7
:102C20009B189B00CB1858681B497A68131C5B00E3
:102C30009B189B005958184C7A68131C5B009B1812
:102C40009B00E31808331B681A1CFFF76FFF7B68B3
:102C500001337B6010497A68131C5B009B189B0052
:102C60005B58002BD8D10C497A68131C5B009B1869
:102C70009B00CB185B68002BCED107497A68131CE8
:102C80005B009B189B00CB1808331B68002BC3D13B
:102C9000BD4603B090BDC0468071000080B500AF56
:102CA000BD4680BD80B500AFBD4680BD0A4C201C2E
:102CB000002805D0854681B00020C043009001B0B7
:102CC000FFF7ECFFFEF7E8F9FFF79CFFFFF7EAFFDD
:102CD000FDF7CEFBFEE7C0460030002080B582B095
:102CE00000AF054B1B687B607B68DB6B181C04F036
:102CF000D4F9BD4602B080BD20F0FF1F80B584B07E
:102D000000AF7860E0231A06064BD358FB60E0233F
:102D10001A06044B7968D150FB68181CBD4604B0F4
:102D200080BDC04608ED0000B0B582B000AF031C06
:102D30000A1C7B603B601C1C032A00D8A4E0181C02
:102D40000121014007D07B607B68591C796000211C
:102D500019707B68013A181C0221014007D03B60C2
:102D60003B68991C3960002119803B68023A1C1CA1
:102D7000950940E0231C1C1D00211960231C1C1D0B
:102D800000211960231C1C1D00211960231C1C1D1F
:102D900000211960231C1C1D00211960231C1C1D0F
:102DA00000211960231C1C1D00211960231C1C1DFF
:102DB00000211960231C1C1D00211960231C1C1DEF
:102DC00000211960231C1C1D00211960231C1C1DDF
:102DD00000211960231C1C1D00211960231C1C1DCF
:102DE00000211960231C1C1D00211960231C1C1DBF
:102DF00000211960013D002DBCD191080F230B402B
:102E00000F2B40D89900294BCB181B689F46231CD9
:102E10001C1D00211960231C1C1D00211960231C8E
:102E20001C1D00211960231C1C1D00211960231C7E
:102E30001C1D00211960231C1C1D00211960231C6E
:102E40001C1D00211960231C1C1D00211960231C5E
:102E50001C1D00211960231C1C1D00211960231C4E
:102E60001C1D00211960231C1C1D00211960231C3E
:102E70001C1D00211960231C1C1D00211960231C2E
:102E80001C1D00211960231C0221114006D03B604B
:102E90003B68991C3960002119803B6801210A4078
:102EA00001D000221A70BD4602B0B0BDE46B000034
:102EB00080B584B000AF786039607A683B68101CD8
:102EC000191C00F017FA031CFB60FB68002B01D1F2
:102ED000FFF704FFFB68181CBD4604B080BDC04668
:102EE000F0B5474680B484B000AF7860164B1B68DD
:102EF000FB60FA68A6235B00D6587B689B68B342E8
:102F00001DD37B689B68181C311CFDF707FB031C55
:102F100098467B681A685B68444600210D1C101CAB
:102F2000191C00196941031C0C1C7A681360546059
:102F30007B689A6843467343D21A7B689A60BD46A1
:102F400004B004BC9046F0BD20F0FF1F80B586B0F1
:102F500000AF244B1B68FB60FB685933FF33BB6039
:102F6000BB68DB687B617B69072B05D907237B6125
:102F7000BB680722DA6007E07B69002B04D10123DC
:102F80007B61BB680122DA607B699BB2DB019AB28C
:102F9000FF2313409AB2FB68DA8200233B6108E00A
:102FA000114B3A69C03292000021D1503B69013384
:102FB0003B613B69072BF3D90C4B7B6000233B61E2
:102FC00009E03B699B007A68D318012252421A60DB
:102FD0003B6901333B613B69002BF2D0BD4606B033
:102FE00080BDC04620F0FF1F00E100E080E100E06E
:102FF00080B584B000AF274B1B687B607B680022E4
:103000001A627A68CC23D35802333B60224BFB60B0
:103010003B68BB602FE0FB68FA681A60FB68FA68DF
:103020005A60BB689AB2FB68DA817A68B2235B00A7
:10303000D258BB68D318002B10D17A68B2235B003A
:10304000D3589AB2BB689BB2D3189BB2DB019AB239
:10305000FF2313409AB2FB689A8102E0FB680022CA
:103060009A817B681A6AFB689A60FA68131C1033AD
:10307000FB607B681A62BB685A1EBA60002BCAD11B
:103080007B681A6A7B685A620023181CBD4604B02C
:1030900080BDC04620F0FF1F940E002080B588B090
:1030A00000AFF860B9607A603B600123FB617B6828
:1030B000013BBA68D3180F229343BB61BB695C3BE9
:1030C0007B61FB68BA691A61BB680F330F229343B7
:1030D0001A1CFB689A61FB687A695A617B69181C43
:1030E0005C21FFF721FE0C4A7B699A637B69FA6ACF
:1030F0005A623B685B6801221A437B69DA637B6929
:10310000802252041A647B69FA6A1A65FB69181CEA
:10311000BD4608B080BDC0461D3E000080B582B0EF
:1031200000AF7860BD4602B080BDC04680B584B0B7
:1031300000AF7860014B1B68FB60FEE720F0FF1FCB
:1031400080B586B000AF7860134B1B687B617B69EC
:10315000DB693B6100F022F83B699B680B2B16D0C2
:103160003B690B229A607A683B699A633B69181C39
:10317000412101F00DF83B695B68FB603B691B680E
:10318000BB60FB68BA681A60BB68FA685A6000F0F6
:103190001BF8BD4606B080BD20F0FF1F80B582B091
:1031A00000AF084B1B687B607B68DB695B6D002BA5
:1031B00000D172B67B68DB695A6D01325A65BD4633
:1031C00002B080BD20F0FF1F80B582B000AF0D4B74
:1031D0001B687B607B68DB695B6D002B0ED07B68B6
:1031E000DB695A6D013A5A655B6D002B06D17B682D
:1031F0001B8B002B01D062B600E062B6BD4602B068
:1032000080BDC04620F0FF1F80B584B000AF78605D
:10321000164B1B68FB60FB689B6B002B04D11820CE
:1032200000F0D8FD00231CE0FB68DA6A7B689A4254
:1032300004D8FB681A6B7B689A4204D2142000F011
:10324000C9FD00230DE0FB68DB6A7A68D31A7B6056
:10325000FB68996B7A68131C5B009B189B00CB186A
:103260009B68181CBD4604B080BDC04620F0FF1FFF
:1032700080B588B000AFF860B9607A601C4B1B68FD
:10328000FB61FB699B6B002B04D1182000F0A2FDB1
:10329000002328E0FB69DA6AFB689A4204D8FB69DC
:1032A0001A6BFB689A4204D2142000F093FD0023AD
:1032B00019E0FB69996BFB69DB6AFA68D21A131C87
:1032C0005B009B189B00CB18BB61FFF767FFBB69D6
:1032D0001B687B61BB69BA681A60BB697A689A60CF
:1032E000FFF772FF7B69181CBD4608B080BDC04661
:1032F00020F0FF1F80B586B000AF786039603A6873
:103300007B689A4201D20C232CE0184B1B68FB60AF
:10331000FA68C0231649D150FB68164A9A623A6887
:103320007B68D31A01333B61134B7B61FB687A697D
:103330009A63FB687A68DA62FB683A681A630BE0A2
:103340007B690C4A1A607B685A1C7A601A1C7B697C
:103350009A607B690C337B613B695A1E3A61002B92
:10336000EED10023181CBD4606B080BD20F0FF1F23
:10337000976F000041310000340F002080B588B005
:1033800000AFF860B9607A603B602C4B1B68BB6192
:10339000FB68BA689A61FB680833FA6808321A60F9
:1033A000FB680833FA6808325A60FB680833002269
:1033B0001A81FB68083300225A81FFF7EFFE7B6811
:1033C000002B31D1BA69F023D358FB610BE0FA69C5
:1033D000FB689A4204D1FFF7F7FE8223DB0029E065
:1033E000FB691B68FB61BB691A1CF032FB699A42DE
:1033F000EDD1BB69F0335B681B687B61FB687A6960
:103400001A60BB69F0335B68FA681A60BB69F03315
:103410005A68FB685A607B69FA685A60BB69F03386
:103420001A89013292B21A81FB68054A5A61FFF784
:10343000CBFE0023181CBD4608B080BD20F0FF1F46
:103440006D73776C80B582B000AF786039607A6850
:103450003B68101C191C00220023FFF78FFF031C80
:10346000181CBD4602B080BD80B588B000AF786042
:103470004F4B1B68FB617B685A694E4B9A4201D0E7
:103480001F2390E0FB69DB695B6D002B00D172B6F6
:10349000FB69DB695A6D01325A657B689B69002BB9
:1034A00067DB7B6808331B89002B62D07B6808339D
:1034B0001B68BB61BB695B687B61BB691B683B6167
:1034C0007B693A691A603B697A695A607B6808339C
:1034D0001A89013A92B21A81BB693C3BBB61BB6954
:1034E0009A6880235B0013401ED0BB695B68FB6059
:1034F000BB691B68BB60FB68BA681A60BB68FA6886
:103500005A60FB693133FF331A89013A92B21A814A
:10351000BB699A68284B1A40BB699A60BB699B6873
:1035200003221A43BB699A60BB6900229A63BB6994
:10353000DA69FB695B6A9A4203D9BB69DA69FB699C
:103540005A62BB6902229A60BB69DB695A68BB692F
:103550005A60BB695B681A68BB691A60BB695B68C3
:10356000BA691A60BB69DB69BA695A6003F07EFC0C
:1035700004E07B689B695A1C7B689A61FB69DB6984
:103580005B6D002B0ED0FB69DB695A6D013A5A6501
:103590005B6D002B06D1FB691B8B002B01D062B643
:1035A00000E062B60023181CBD4608B080BDC046CE
:1035B00020F0FF1F6D73776CFFFEFFFF80B588B0B2
:1035C00000AF78603F4B1B68FB61FB691B8B002BD6
:1035D00001D00D2372E07B685A693B4B9A4201D0BF
:1035E0001F236BE0FB69DB695B6D002B00D172B6BA
:1035F000FB69DB695A6D01325A657B689B69002B58
:1036000039DCFB69DB69BB61BB69304A9A607B6866
:1036100008331A1CBB699A63BB695B687B61BB6931
:103620001B683B617B693A691A603B697A695A6039
:103630007B6808335B681B68FB60BB693C33FA68D6
:103640001A607B6808335B68BA693C321A60BB69F0
:103650003C337A68083252685A60BB691A1C3C32A3
:10366000FB685A607B6808331A89013292B21A816A
:1036700003F008FC04E07B689B695A1E7B689A6132
:103680007B685A69104B9A4203D0FFF79DFD1F23B8
:1036900014E0FB69DB695B6D002B0ED0FB69DB6915
:1036A0005A6D013A5A655B6D002B06D1FB691B8B85
:1036B000002B01D062B600E062B60023181CBD46A4
:1036C00008B080BD20F0FF1F6D73776C2B040000E5
:1036D00080B584B000AF7860044B1B68FB607B68EA
:1036E0009AB2FB681A81BD4604B080BD20F0FF1F6E
:1036F00080B586B000AF5E4B1B68BB60BB685D4A9F
:103700001A82BB68E42252005A82BB6808221A60FF
:10371000BB6801225A60BB680222DA81BB680F22B3
:103720005A81BB680F229A81BA68BC235B00D358C8
:10373000002B02D1012000F09BF9FFF707FCBB68CA
:1037400048337B60BB687A68DA61BB68DA8ABB6839
:103750005A83BB68DA8A7B689A84BA68AC235B00B8
:10376000D3581B04444A1A437B68DA607B680322FF
:103770009A60BB68F033BA68F0321A60BB68F03305
:10378000BA68F0325A60BB68F03300221A81BB6815
:10379000F03300225A81BB683133FF33BA683132CB
:1037A000FF321A60BB683133FF33BA683132FF32FF
:1037B0005A60BB683133FF3300221A81BB68313352
:1037C000FF3300225A8100233B61BA68BC235B00AF
:1037D000D3587B610023FB600DE07B69DA683B69AD
:1037E0009A4202D97B69DB683B61FB680133FB606D
:1037F0007B691C337B617B691B68002B03D0FA68F3
:103800001E4B9A42E9D9BA68CC233969D150BB68BA
:10381000862292009B187B617B69194A1A60BA68FC
:10382000B8235B00D2587B699A607B69154A1A619C
:103830007B69154A5A603B695A1C7B69DA60BB6830
:10384000D033BA68D0321A60BB68D033BA68D0328D
:103850005A60BB68D03300221A81BB68D033002283
:103860005A81BA68DC230121D150BD4606B080BD23
:1038700020F0FF1FFA290000FFFF0000FEFF0000FC
:1038800003000080BC6700002D31000090B587B0B8
:1038900000AF786000237B617B685B683B613B4BDA
:1038A0003A691A603B693A4A1A603B69394A1A60B8
:1038B0003B69394A1A603B69384A1A603B693A1CCD
:1038C00008321A603A698D239B00101C191CFFF7FF
:1038D0002BFA3969AC235B007A68CB1813CA13C37F
:1038E00013CA13C313CA13C3FFF702FF3A69B623FF
:1038F0005B00D358002B38D03A69B6235B00D3580D
:10390000FB603A69B4235B00D3587B61FA687B693A
:10391000101C191C00F068FB7B69013BFA68D31886
:103920000F2293431A1C3B69DA63FFF761FB031C08
:103930007B613B697D33FF33181C0121FFF782FD5A
:103940003B69FC33181C0121FFF77CFD8023DB0160
:10395000181CFFF7BDFE0F201D21FFF7A9FA031C5D
:103960007B617B69002B04D001E00C2309E07B69BB
:1039700007E00B4B181CFFF7C1F9002001F0BEFF58
:103980000023181CBD4607B090BDC04620F0FF1FA5
:10399000246C0000286C00002C6C0000306C0000CF
:1039A0000000000090B587B002AF2F4B1B687B6012
:1039B0007B68862189005A187B68DB69DB68786838
:1039C000BA21490040587C688821890061580090DC
:1039D0000191101C191C0022002300F031FA031C75
:1039E0003B603B68002B02D1042000F041F83B68AB
:1039F000181C00F013FB0023BB607A68BC235B003B
:103A0000D358FB6022E0FB685A690123134017D0AA
:103A10007B68DB69D968FB689A69144BB8688000D9
:103A2000C458FB689868FB6800940190181C002338
:103A300000F006FA031C3B603B68181C00F0EEFA2D
:103A4000FB681C33FB60BB680133BB60FB681B6811
:103A5000002BD8D1002001F087FF03F001FA0023EA
:103A6000181CBD4605B090BD20F0FF1F24F0FF1FBD
:103A700080B584B000AF7860FFF790FB014B1B6806
:103A8000FB60FEE720F0FF1F80B594B000AF7860C8
:103A900039609B4B1B68BB647B68002B10D07B6834
:103AA0001A0C3B1C46331A80BA6CAC235B00D3580B
:103AB0009BB23A1C463212889A4201D012231AE174
:103AC0007B68181C00F02EF9031C3B643B6C002B38
:103AD00005D0BB6C1A1C48323B6C9A4201D11223B0
:103AE00009E1BB6CFC33181CFFF768FDFFF756FBC0
:103AF0003B6C9B68092B08D1FFF766FBBB6CFC3362
:103B0000181CFFF7B1FC0023F5E03B6C9B68022B0F
:103B100011D1BB6CDA693B6C9A4250D03B6C5B684C
:103B2000FB633B6C1B68BB63FB6BBA6B1A60BB6BC4
:103B3000FA6B5A6043E03B6C9A6880235B00134049
:103B400025D03B6C9A6880235B00134037D03B6CD8
:103B50005B687B633B6C1B683B637B6B3A6B1A60F7
:103B60003B6B7A6B5A60BB6C3133FF331A89013A75
:103B700092B21A813B6C9A68624B1A403B6C9A6015
:103B80003B6C9B6803221A433B6C9A6017E03B6CCA
:103B90009A6880239B00134011D03B6C5B68FB62EA
:103BA0003B6C1B68BB62FB6ABA6A1A60BB6AFA6A42
:103BB0005A603B6C9B6B1A89013A92B21A813B6C3A
:103BC0009A688023DB00134013D03B6C3C335B6866
:103BD0007B623B6C3C331B683B627B6A3A6A1A60CF
:103BE0003B6A7A6A5A603B6C9B6B1A89013A92B2C3
:103BF0001A813B6C09229A60FFF7E6FA0023FB6406
:103C000011E0BB6CFA6C76329200D358002B07D0CF
:103C1000BB6CFA6C76329200D3583A6C101C984701
:103C2000FB6C0133FB64FB6C0F2BEAD93B6CDA684D
:103C30003B1C1E331A80BB6CDB69BB613B6C802272
:103C40001206DA60BB6CD0331B89012B08D1BA6C29
:103C5000DC230121D150BA6CE0230021D15014E0C3
:103C6000BA6CDC23D2583B1C1E331B889A420CD9F9
:103C70003B1C1E331988BA6CDC23D1503B6CDB6EC5
:103C8000191C6839BA6CE023D1503B6C68335B680F
:103C90007B613B6C68331B683B617B693A691A60E6
:103CA0003B697A695A60BB6CD0331A89013A92B287
:103CB0001A81BB6CFC33181CFFF7D6FB3A6CBB694E
:103CC0009A4213D1FFF76AFA3B6C5B68FB603B6C6E
:103CD0001B68BB60FB68BA681A60BB68FA685A6008
:103CE0003B6C181CFFF71AFA03F0BDF83B6C181C6C
:103CF000FFF714FA0023181CBD4614B080BDC0465F
:103D000020F0FF1FFFFEFFFF80B582B000AF78609C
:103D10007B68181C0021FFF7B7FE031C181CBD466A
:103D200002B080BD80B586B000AF7860284B1B68BC
:103D3000FB607B68002B02D1FB68DB6943E0FB681A
:103D40005A6D7B689A4202D1FB6848333BE0FB68BE
:103D5000DB695B6D002B00D172B6FB68DB695A6DC5
:103D600001325A65FA68D023D358683B7B61FB68FF
:103D7000D0331B893B611EE07B69DA687B689A421D
:103D800015D1FB68DB695B6D002B0ED0FB68DB692E
:103D90005A6D013A5A655B6D002B06D1FB681B8B8F
:103DA000002B01D062B600E062B67B690BE07B6954
:103DB0009B6E683B7B613B695A1E3A61002BDBD1ED
:103DC000FFF702FA0023181CBD4606B080BDC046AE
:103DD00020F0FF1FB0B582B000AF78600E4B1C68BA
:103DE000238B002B02D0636BDD6801E0E3699D6DDE
:103DF0007B68002B01D0002D09D1238B002B03D031
:103E0000636B7A68DA6002E0E3697A689A652B1C72
:103E1000181CBD4602B0B0BD20F0FF1F80B582B0B7
:103E200000AF064B1B687B607B68DB693B60002052
:103E3000FFF76AFFBD4602B080BDC04620F0FF1FFD
:103E400090B58FB002AFF860B9607A603B60654BA7
:103E50001B683B62FB68DA68396ACC23CB589A420C
:103E60000BD93B6A862080001A18FB689A4204D05E
:103E70000E20FFF7AFFF0023AFE03B6C002B22D0FA
:103E80007B6C7B627A6A8A235B009A4204D80220A8
:103E9000FFF7A0FF0023A0E0796A3A1C14323B6CC4
:103EA000081C111C1A1C002300F0DAF8031CFB622A
:103EB0007B697A6AD31A7B623B68002B21D07B6ACC
:103EC0001C3B7B621DE0FB689B687B627B6A9C2BD2
:103ED00001D89C237B627B6A0F330F2293437B6262
:103EE0003B68002B02D07B6A1C3300E07B6A3A1CE3
:103EF0001432181C111C0022002300F0B1F8031C1E
:103F0000FB62FB6A03229A60FB6A5B6F002B03D0A3
:103F1000FB6A5B6FBB6206E07B69FA6AD318BB621F
:103F2000FB6ABA6A5A673B68002B15D0BB6AFB6113
:103F3000BB6A1C33BB62FB69FA6813CA13C313CA9A
:103F400013C312681A60FB69FB60FB681B68802260
:103F500012061A43FB681A60BA6A7B6A101C191CA5
:103F600000F042F83B6A1A6AFB68DB681B015B429F
:103F7000D318BB61FB6ABA69DA61FB6ABA691A6273
:103F8000BB699A89FB6A9A84FB685A69FB6A9A62E0
:103F90003B6C002B05D0FB6A9B6A20221A43FB6A0C
:103FA0009A62BB699B891C1CF86AB96A7A6AFB68C9
:103FB00000947C680194FFF771F8031C002B01D179
:103FC00000230AE0FB6AFA685A66FB681A68FB6A13
:103FD0001A66FB6ABA68DA65FB6A181CBD460DB042
:103FE00090BDC04620F0FF1F80B582B000AF786062
:103FF00039603B689B0801333B6004E07B681A1D15
:104000007A60054A1A603B68013B3B603B68002BC5
:10401000F4D1BD4602B080BD6B617473B0B584B09D
:1040200000AF78600D4B1B68FB607B68DC696568DE
:10403000FB685B6AA34201D2FB685C627B68022278
:104040009A607B685D602A687B681A607B682B6079
:104050007B686360BD4604B0B0BDC04620F0FF1F62
:1040600080B58EB000AFF860B9607A603B607823AD
:104070007B62454B1B683B623B6AD0331A89434BDA
:104080009A4201D900237AE0BB687A6A1A607B6899
:10409000002B07D07B687B637A6B7B6A101C191C32
:1040A000FEF742FE3A6ADC23D2583B1C2A331A80C0
:1040B0003A6AE023D358FB613A6AAC235B00D358D9
:1040C0001A043B1C2A331B881A437B6BDA60FB699A
:1040D000002B03D13B6AD033FB6202E0FB696833FB
:1040E000FB62FB6A1B68BB617B6B6833BA691A6051
:1040F0007B6B1A1C6832FB6A1A607B6B6833FA6A46
:104100005A607B6B1A1C6832BB695A603B6AD033B9
:104110001A89013292B21A817B6B3B633B6BFB6164
:10412000FB699B6E683B7B617B693B633B1C2A336D
:104130001A883B1C2A3301321A803B1C2A331B8805
:10414000002B03D13B1C2A3301221A803B6A1A1C24
:10415000D0327B699A4207D07B69DB689BB23A1CFC
:104160002A3212889A42D9D03A6AE023F969D150AA
:104170003B1C2A3319883A6ADC23D1507B6B181C0C
:10418000BD460EB080BDC04620F0FF1FFDFF000001
:1041900080B584B000AF786039607B689B6DFB6050
:1041A0003B68002B02D0FB68002B02D17B683A6889
:1041B0009A65FB68181CBD4604B080BDF0B5574633
:1041C0004E464546E0B484B000AF031C384A106840
:1041D0008146982149000E1C4E4498204000021C44
:1041E0004A441289002A3AD09822520049468858F7
:1041F0008046982149000A1C4A441289013292469D
:1042000027E042464432146855681A1C443211684B
:104210005268954214D801D18C4211D8424644329A
:1042200011685268181C443004684568954202D8E9
:1042300004D18C4202D90122524202E0002200E065
:104240000122141C002C00DB09E0464640460268AF
:104250009046012149428A445246002AD1D15A68E7
:10426000FA601A68BA60FA68B9681160BA68F968E1
:10427000516032687A607A681A6033605E607A688A
:10428000536098204000021C4A441189013189B2D0
:1042900011819A68802149000A439A6002F0F2FD78
:1042A000BD4604B01CBC90469946A246F0BDC0462F
:1042B00020F0FF1FF8B500AF061C1A490C68002E4D
:1042C00000D12DE0E569E169496D002900D172B6A0
:1042D000E169486D01304865442149198C468C23B9
:1042E0005B00E11808684968321C0026331C12186C
:1042F0004B4161460A604B60281CFFF75FFFE36992
:104300005B6D002B0CD0E3695A6D013A5A655B6D09
:10431000002B05D1238B002B01D062B600E062B6E2
:10432000BD46F8BD20F0FF1FF0B54F464646C0B46D
:1043300085B000AF614B1D688C225200A81801683F
:104340004268012300245B18544103604460EB6918
:104350005B6D002B00D172B6EB695A6D01325A6564
:10436000A8235B00EB58002B0BD0A8235B00EB5875
:10437000AA225200AA58101C9847021C90235B00E6
:10438000EA508C225200AB18181CFEF7A9FD9822A7
:104390005200AB181B891E1C002E00D176E098231A
:1043A0005B00EC5801366EE0236898468C22520080
:1043B000AB1818685968231C44331A685B68994223
:1043C00015D801D1904212D88C225200AB181A682D
:1043D0005B68211C443108684968994202D804D1BD
:1043E000904202D901235B4202E0002300E0012356
:1043F00099464B46002B45DB9C235B00EB5A013B67
:104400009AB29C235B00EA526368FB602368BB603E
:10441000FB68BA681A60BB68FA685A60A268284BE1
:104420001340A360A2688023DB00134016D0A2686B
:10443000244B1340A360231C3C335B687B60231C2C
:104440003C331B683B607B683A681A603B687A685B
:104450005A60A36B1A89013A92B21A81E2696B6AB7
:104460009A4201D9E3696B620223A360E3695B6846
:10447000636063681B68236063681C60E3695C6059
:10448000444600E002E0013E002E8DD1EB695B6DF9
:10449000002B0CD0EB695A6D013A5A655B6D002B0D
:1044A00005D12B8B002B01D062B600E062B6BD4671
:1044B00005B00CBC90469946F0BDC04620F0FF1FE9
:1044C000FFFEFFFFFFFBFFFF90B583B000AF7860FA
:1044D0003960064B1C68A8235B007A68E250AA2367
:1044E0005B003A68E250BD4603B090BD20F0FF1F6C
:1044F00090B583B000AF7860044B1C68A6235B00C6
:104500007A68E250BD4603B090BDC04620F0FF1F60
:1045100080B584B000AF78604F4BFB60FB68002231
:104520001A81FB6800221A82FB680022DA60FB68AD
:1045300000225A82FB6800221A83FB6800225A611B
:10454000FB687A685A621D20FEF75EFE021CFB685B
:104550001A62424AFB681D20111C1A1CFEF788FED5
:10456000021CFB68DA613E4B3D4A52698021890397
:104570000A435A613A4B3A4A11693A4A0A401A6167
:10458000394A3949C3239B00C958384B0B40802115
:10459000C9011943C3239B00D150334B80229201A0
:1045A0001A60314A80230021D150314B304AD278F1
:1045B000D2B208218A43D2B2DA702D4B2C4AD2787B
:1045C000D2B204218A43D2B2DA70FB6800221A8088
:1045D000FB6800225A60264B00229A70244B00226E
:1045E0009A71234B00225A71214B214A1278D2B280
:1045F0001F218A43D2B21A701D4B0D225A701C4BD8
:104600001B4AD278D2B2D2B208210A43D2B2D2B275
:10461000DA70174B164AD278D2B2D2B204210A43CA
:10462000D2B2D2B2DA70124B114AD278D2B2202171
:104630000A43D2B2DA700E4B0D4A9279D2B20F21F0
:104640000A43D2B29A710B4BFA689A60FB68181C45
:10465000BD4604B080BDC046C0F0FF1F2148000029
:1046600000800440FFEFFFFF00E100E0FF3FFFFF9D
:1046700000B00640F8F2FF1F80B586B000AFF860CA
:10468000B960BB1D1A80FB687B61BB1D1B88002BBA
:1046900001D1842314E07B691B8A002B01D00823FD
:1046A0000EE0FEF77BFD7B69BA68DA607B69BA1DB4
:1046B00012881A827B6900221A81FEF785FD002389
:1046C000181CBD4606B080BD80B586B000AFF8604E
:1046D000B960BB1D1A80FB687B61BB1D1B88002B6A
:1046E00001D1842329E07B691B8B002B01D0082397
:1046F00023E0FEF753FD7B69BA685A617B69BA1DF6
:1047000012881A837B6900225A827B691B880122E6
:1047100013439AB27B691A800A4B0A4AD278D2B202
:10472000802149420A43D2B2DA70064B054A927997
:10473000D2B29A71FEF748FD0023181CBD4606B0A0
:1047400080BDC04600B0064090B583B000AF786031
:10475000124BDB79DBB21C1C7B681B8A002B1AD046
:104760007B68DB68591C7A68D160E2B21A707B689A
:104770001B8901339AB27B681A817B681A897B682E
:104780001B8A9A4207D17B6800221A827B685B6A87
:10479000181C01F00DFCBD4603B090BD00B00640F2
:1047A00080B582B000AF78607B685A8A7B681B8BCB
:1047B0009A421CD219497B685B69581C7A6850611F
:1047C0001B78CB717B685B8A01339AB27B685A8213
:1047D0007B685A8A7B681B8B9A421CD17B680022BB
:1047E0001A837B685B6A181C01F02AFC13E00B4BF0
:1047F0000A4AD278D1B27F220A40D2B2DA70074B8D
:10480000064A9279D2B29A717B681B88012293433F
:104810009AB27B681A80BD4602B080BD00B00640E7
:10482000F0B5474680B484B000AF78607B68FB6029
:10483000334B1B79DBB21C1C002500260F232340C1
:1048400044D02F4BDB79DBB298460223234013D0B0
:10485000202323400DD04246002A0AD1331C0133C5
:10486000DEB2FB681B88022213439AB2FB681A80EF
:1048700002E004232B439DB20823234002D00123EE
:104880002B439DB20123234002D002232B439DB230
:104890000423234002D008232B439DB2FB685A68AF
:1048A0002B1C1A43FB685A602023221C9A43131CBA
:1048B0001C1C002E05D0FB685B6A181C01F04CFC28
:1048C00004E0FB685B6A181C01F0FEFB2023234018
:1048D00003D0FB68181CFFF737FFFB681B881A1C06
:1048E0000123134006D08023234003D0FB68181C0B
:1048F000FFF756FFBD4604B004BC9046F0BDC0466D
:1049000000B0064080B584B000AF786039607B6845
:10491000FB60FEF743FCFB685A683B681A60FB6863
:1049200000225A60FEF750FC0023181CBD4604B05C
:1049300080BDC04680B584B000AF7860514BFB604D
:10494000FB6800221A81FB6800221A82FB680022A1
:10495000DA60FB6800225A82FB6800221A83FB6837
:1049600000225A61FB687A685A621C20FEF74CFCF0
:10497000021CFB681A62444AFB681C20111C1A1CAA
:10498000FEF776FC021CFB68DA61404B3F4A526935
:10499000802149030A435A613C4B3C4AD26880213A
:1049A0000A43DA60394B394A5168394A0A405A6039
:1049B000384A3849C3239B00CB58C0218B43402140
:1049C0001943C3239B00D150324B802252011A60FD
:1049D000304A80230021D1502F4B2F4AD278D2B2B7
:1049E00008218A43D2B2DA702B4B2B4AD278D2B24A
:1049F00004218A43D2B2DA70FB6800221A80FB6875
:104A000000225A60244B00229A70234B00229A7194
:104A1000214B00225A71204B1F4A1278D2B21F211B
:104A20008A43D2B21A701C4B0D225A701A4B1A4A82
:104A3000D278D2B2D2B208210A43D2B2D2B2DA705C
:104A4000154B154AD278D2B2D2B204210A43D2B25F
:104A5000D2B2DA70104B104AD278D2B220210A4377
:104A6000D2B2DA700C4B0C4A9279D2B20F210A43BF
:104A7000D2B29A71094BFA68DA60FB68181CBD461D
:104A800004B080BDE8F0FF1F494C000000800440E6
:104A9000FFFCFFFF00E100E000A00640F8F2FF1F6E
:104AA00080B586B000AFF860B960BB1D1A80FB68A6
:104AB0007B61BB1D1B88002B01D1842314E07B6923
:104AC0001B8A002B01D008230EE0FEF767FB7B69F1
:104AD000BA68DA607B69BA1D12881A827B69002283
:104AE0001A81FEF771FB0023181CBD4606B080BD7D
:104AF00080B586B000AFF860B960BB1D1A80FB6856
:104B00007B61BB1D1B88002B01D1842329E07B69BD
:104B10001B8B002B01D0082323E0FEF73FFB7B69B2
:104B2000BA685A617B69BA1D12881A837B690022B0
:104B30005A827B691B88012213439AB27B691A80CF
:104B40000A4B0A4AD278D2B2802149420A43D2B2F1
:104B5000DA70064B054A9279D2B29A71FEF734FBAD
:104B60000023181CBD4606B080BDC04600A006400C
:104B700090B583B000AF7860124BDB79DBB21C1CC0
:104B80007B681B8A002B1AD07B68DB68591C7A680B
:104B9000D160E2B21A707B681B8901339AB27B68DC
:104BA0001A817B681A897B681B8A9A4207D17B68C5
:104BB00000221A827B685B6A181C00F081F9BD46EE
:104BC00003B090BD00A0064080B582B000AF786011
:104BD0007B685A8A7B681B8B9A421CD219497B6876
:104BE0005B69581C7A6850611B78CB717B685B8A63
:104BF00001339AB27B685A827B685A8A7B681B8B26
:104C00009A421CD17B6800221A837B685B6A181C5D
:104C100000F0B4F913E00B4B0A4AD278D1B27F22EC
:104C20000A40D2B2DA70074B064A9279D2B29A7130
:104C30007B681B88012293439AB27B681A80BD4629
:104C400002B080BD00A00640F0B5474680B484B0F5
:104C500000AF78607B68FB60334B1B79DBB21C1CB8
:104C6000002500260F23234044D02F4BDB79DBB2F5
:104C700098460223234013D0202323400DD04246E0
:104C8000002A0AD1331C0133DEB2FB681B880222E2
:104C900013439AB2FB681A8002E004232B439DB2AF
:104CA0000823234002D001232B439DB2012323403C
:104CB00002D002232B439DB20423234002D00823B9
:104CC0002B439DB2FB685A682B1C1A43FB685A6041
:104CD0002023221C9A43131C1C1C002E05D0FB68A9
:104CE0005B6A181C00F0E0F904E0FB685B6A181CC2
:104CF00000F088F92023234003D0FB68181CFFF73D
:104D000037FFFB681B881A1C0123134006D0802341
:104D1000234003D0FB68181CFFF756FFBD4604B0C4
:104D200004BC9046F0BDC04600A0064080B584B0EB
:104D300000AF786039607B68FB60FEF72FFAFB6894
:104D40005A683B681A60FB6800225A60FEF73CFA1A
:104D50000023181CBD4604B080BDC04680B500AF1E
:104D6000044B1A68044B101C191C0122FFF798FE13
:104D7000BD4680BD3C060020E4F1FF1F80B584B035
:104D800000AF78603B1C0F3300221A702D4B1B883C
:104D9000002B4DD03B1C0E33EFF3108072B6187011
:104DA000294B1B78DBB20133DBB2274A191C117087
:104DB000012B04D13B1C0E331A78244B1A70214B63
:104DC0001B88013B9AB21F4B1A80214B1B885A1C2F
:104DD00091B21F4A11801F4AD25C7B681A701C4B2B
:104DE0001B88C72B02D91A4B00221A801A4B1B882A
:104DF0001A1CC723134001D0192300E000233A1CDA
:104E00000F321370144B1B88CF2293439AB2124B6C
:104E10001A800D4B1B78DBB2013BDBB20A4A191C2E
:104E20001170002B06D1094B187880F3108801E02F
:104E30000A2302E03B1C0F331B78181CBD4604B04C
:104E400080BDC04614F1FF1FB4F0FF1F0CF5FF1F1B
:104E500016F1FF1F1CF1FF1F10F1FF1F80B500AFFF
:104E60000F4B00221A800F4B00221A800E4B00229B
:104E70001A800E4B00221A800D4B00221A800D4B17
:104E800000221A800C4B00221A800020FFF752FDEE
:104E9000021C0A4B1A60FFF761FFBD4680BDC04689
:104EA00010F1FF1F14F1FF1F16F1FF1F18F1FF1F74
:104EB000E6F1FF1FE8F1FF1FEAF1FF1F3C060020AB
:104EC00090B583B000AF78600024254B1B88C72BBA
:104ED00021D8234B1B8801339AB2214B1A80214BD6
:104EE0001B885A1C91B21F4A11801F4A11781F4A11
:104EF000D1541C4B1B88C72B02D91A4B00221A8095
:104F000004232343DCB2164B1B88C82B11D1022388
:104F10002343DCB20DE0164B1B88402213439AB2A8
:104F2000134B1A80134B1B88402213439AB2114B28
:104F30001A80221C0423134001D0FDF7F7FC221C29
:104F40000223134001D0FDF701FD0B4B1A68064BFD
:104F5000101C191C0122FFF7A3FDBD4603B090BD34
:104F600014F1FF1F18F1FF1FE4F1FF1F1CF1FF1FD9
:104F700010F1FF1F12F1FF1F3C06002080B582B028
:104F800000AF78601A4B1B8801339AB2184B1A8015
:104F9000174B1B88C72B02D9154B00221A80154BC3
:104FA0001B88013B9AB2134B1A80124B1B88002BB3
:104FB00013D0114B1B88202213439AB20E4B1A8038
:104FC0000E4B1A680A4B1B88191C0D4BCB18101C72
:104FD000191C0122FFF78CFD06E0074B1A88DF231E
:104FE00013409AB2044B1A80BD4602B080BDC04641
:104FF000E8F1FF1FE6F1FF1F10F1FF1F3C06002044
:10500000ECF1FF1F80B584B000AF7860234B1A68C5
:105010003B1C0C33101C191CFFF788FEFB68002B8F
:1050200039D0FA680223134001D0042300E00023A2
:105030001B4A128813439AB2194B1A80FA68082344
:10504000134001D0802300E00023154A1288134347
:105050009AB2134B1A80FB689AB2012313409AB29A
:105060000F4B1B8813439AB20D4B1A80FA68042326
:10507000134001D0022300E00023094A12881343A1
:105080009AB2074B1A80074B1A88054B1B881343AB
:105090009AB2044B1A80BD4604B080BD3C06002085
:1050A00010F1FF1F12F1FF1F80B582B000AF7860D2
:1050B000044B1B88022213439AB2024B1A80BD464E
:1050C00002B080BD10F1FF1F80B584B000AF7860E2
:1050D0000D4BFB60FB687A681A600C4B0B4A5269F7
:1050E000802149000A435A61084B084A126880210E
:1050F00049000A431A60064BFA685A60FB68181C9C
:10510000BD4604B080BDC046B4F2FF1F00F00F40A2
:10511000F8F2FF1F80B584B000AF78600C4BFB60E5
:10512000FB687A681A600B4B0A4A51690A4A0A40BE
:105130005A61084B074A9169074A0A409A61074B2E
:10514000FA689A61FB68181CBD4604B080BDC04671
:10515000B8F2FF1F00F00F40FFFFFEFFF8F2FF1F45
:1051600080B584B000AF78600D4BFB60FB687A6857
:105170001A600C4B0B4A5269802109010A435A619B
:10518000084B084A1268802109010A431A60064B3D
:10519000FA68DA61FB68181CBD4604B080BDC046E1
:1051A000BCF2FF1F00F00F40F8F2FF1F80B584B083
:1051B00000AF78600D4BFB60FB687A681A600C4B9F
:1051C0000B4A52698021C9000A435A61084B084AB8
:1051D00012688021C9000A431A60064BFA681A62F5
:1051E000FB68181CBD4604B080BDC046C0F2FF1F5E
:1051F00000F00F40F8F2FF1F80B582B000AF78607A
:105200000A1CFB1C1A70FB1C1B78002B04D0064BDD
:105210008022D2005A6003E0034B8022D2009A60C1
:10522000BD4602B080BDC04600F00F4080B584B0DE
:1052300000AF78600C4BFB60FB687A681A600B4B20
:105240000A4A5269802189030A435A61074B074A77
:105250001168074A0A401A60064BFA689A62FB68AE
:10526000181CBD4604B080BDC4F2FF1F00F00F4003
:10527000FFFFDFFFF8F2FF1F80B584B000AF78605A
:10528000184BFB60FB687A681A60174B164A526924
:105290008021C9000A435A61FB6800221A71FB6829
:1052A00000221A81114BC422D2059A600F4B0F4A7B
:1052B0001268120C12041A600C4B0C4A5268120C41
:1052C00012040B490A435A60084B084A9168094A7C
:1052D0000A409A60084BFA681A61FB68181CBD46C0
:1052E00004B080BDC8F2FF1F0080044000200340CE
:1052F00005800000FFFFFFFDF8F2FF1F80B500AF43
:105300000020FFF7E1FE00F021FEFFF7A7FD0020DF
:10531000FFF7B2FF002000F037FB0020FFF7FAFE96
:105320000020FFF71DFF0020FFF740FF00F0C6FF41
:105330000020FFF77BFFBD4680BDC04680B584B02E
:1053400000AFF860B9607A60BA680D4B9A4201D933
:10535000892311E0BA687B68D318BB60BA688023E0
:105360009B029A4201D9842306E0FB685B78022BFA
:1053700001D9082300E00023181CBD4604B080BDFD
:10538000FFFF010080B584B000AF7860214BFB6067
:10539000FB687A685A611520FDF736FF021CFB682E
:1053A000DA611D4AFB681520111C1A1CFDF760FF0D
:1053B000021CFB689A61194BFA685A62FB68022268
:1053C0005A70FB6800221A70FB6800221A74144B92
:1053D000134A5269802149010A435A61114B012243
:1053E000DA70114A1049C1239B00C9580F4B0B407A
:1053F0008021C9011943C1239B00D1500A4B2022AF
:105400001A60094A80230021D150FB68181CBD4650
:1054100004B080BDD4F2FF1F99580000F8F2FF1FBE
:10542000008004400000024000E100E0FF3FFFFF79
:1054300090B587B000AFF860B9607A603B60FB68F8
:105440007B613C1C12347969BA683B68081C111CEA
:105450001A1CFFF773FF031C23803B1C12331B88AD
:10546000002B03D03B1C12331B880FE07B69012209
:105470001A707B6904225A707B69BA685A607A682C
:105480007B699A607B693A68DA600023181CBD4624
:1054900007B090BD90B587B000AFF860B9607A6092
:1054A0003B60FB687B613C1C123479697A683B681D
:1054B000081C111C1A1CFFF741FF031C23803B1C16
:1054C00012331B88002B03D03B1C12331B881EE0B9
:1054D000114B00225A70104B06225A727B6902222D
:1054E0001A707B6904225A70BA687B699A607B697A
:1054F0007A685A607B693A68DA60074B064AD27963
:10550000D2B2802149420A43D2B2DA710023181C78
:10551000BD4607B090BDC0460000024090B587B0C0
:1055200000AFF860B9607A60FB687B613C1C1234A4
:105530007969BA687B68081C111C1A1CFFF7FEFE0B
:10554000031C23803B1C12331B88002B03D03B1C05
:1055500012331B881FE07B6903221A707B690422C7
:105560005A707B697A68DA60BB680322191C914320
:105570000A1C7B695A600A4B00225A70084B0A22A7
:105580005A72074B064AD279D2B2802149420A4365
:10559000D2B2DA710023181CBD4607B090BDC046D8
:1055A0000000024080B584B000AF786039607B684D
:1055B000FB60FDF7F3FDFB681A783B681A70FB6827
:1055C0001A7C3B689A70FB685A683B685A60FB68B3
:1055D0009B681A1C3B689A60FB68DA683B68DA6073
:1055E000FDF7F2FDBD4604B080BDC04680B590B069
:1055F00000AF78607B68FB62FB6A5B78042B0DD19F
:10560000A24B30225A713B1C333300221A70FB6AC2
:1056100000221A74FB6A05225A7018E0FB6A1B7894
:10562000012B04D13B1C333300221A700FE0FB6ABC
:105630001B7CDAB2954B5B79DBB2DBB2191C3323EE
:105640000B40DBB21343DAB23B1C33331A703B1C02
:1056500033331B78002B10D0FB6A00225A708B4B1F
:105660008A4AD279D1B27F220A40D2B2DA71FB6A79
:105670005B69181C00F0E8FE04E1FB6ADB68002BA4
:1056800010DCFB6A02225A70804B804AD279D1B278
:105690007F220A40D2B2DA71FB6A5B69181C00F003
:1056A00089FEEFE0FB6A1B78022B06D0032B00D1AA
:1056B00092E0012B00D1C7E0CCE00223FB63734BE7
:1056C00000225A70714AFB6A5B681B0CDBB21372D2
:1056D0006E4B01225A706D4AFB6A5B681B0ADBB293
:1056E00053726A4AFB6A5B68DBB203218B43DBB20D
:1056F000137269E0FB6A5B68032293437B630023B8
:10570000BB6325E0FB6A5A687B6B9A4203D8FB6A4D
:10571000DB68002B09D17B6B5A1C7A631A78391C21
:105720002431BB6BCB181A700FE0FB6A9B68591CC5
:10573000FA6A91601A78391C2431BB6BCB181A7045
:10574000FB6ADB685A1EFB6ADA60BB6B0133BB6322
:10575000BB6B032BD6D9FB6A5B68032293437B6345
:105760007B6B1B68DA433B1C24331B68134007D058
:10577000FB6A1B7C04221343DAB2FB6A1A7481E0D1
:105780007B6B1A1DFB6A5A60404AFB6B591CF9631C
:10579000DBB253703D4B3A1C243212781A723B4BE9
:1057A0003A1C243252785A72384AFB6B591CF963FE
:1057B000DBB25370354B3A1C243292781A72334B59
:1057C0003A1C2432D2785A72FB6ADB68002B02D072
:1057D000FB6B052B8ED941E02C4B00225A702B4AD3
:1057E000FB6A5B681B0CDBB21372284B01225A70F8
:1057F000264AFB6A5B681B0ADBB25372234AFB6AC8
:105800005B68DBB21372FB6A5B68802189005A18FF
:10581000FB6A5A60FB6ADB681D495A18FB6ADA604A
:105820001CE0FB6A9B68591CFA6A9160191CFB6AB0
:105830005B68581CFA6A50601B780B70FB6ADB6867
:105840005A1EFB6ADA6000E0C046FB6ADB68002B88
:10585000E7D117E0FB6A0022DA60C0463B1C083340
:10586000013301229343BB620A4BBA6A111C1A1C12
:105870001C23081C111C1A1C00F04EFEBB6A0122DE
:1058800013439847BD4610B080BDC046000002409B
:1058900000FEFFFFA46C000080B584B000AF78600C
:1058A0007B68FB60FB68181CFFF7A0FEBD4604B0D8
:1058B00080BDC04680B582B000AF7860FEF734FD91
:1058C000BD4602B080BDC04680B584B000AF7860F0
:1058D0007A683B1C0C33101C191C00F0CBF97B6858
:1058E000181C00F0BBF9021CFB68101C191CFAF70D
:1058F00015FE031C181CBD4604B080BD80B584B0E5
:1059000000AF7860154B1B68FB60002000F04EF97B
:10591000021C134B1A60124B1B68181CFFF7D4FFB4
:10592000011CFA68A2235B00D1500D4B1B680D4A85
:10593000101C191CFEF7C8FD094B1A683B1C0833E4
:10594000101C191C00F096F9BB68181CFEF7D0FD5E
:105950000023181CBD4604B080BDC04620F0FF1FC8
:10596000F4F2FF1FAD5C000080B582B000AF78603C
:10597000044B1B68181C00F05FF90023181CBD467F
:1059800002B080BDF4F2FF1F80B584B000AF786034
:10599000324BFB60FB687A681A621B20FDF734FC0F
:1059A000021CFB68DA612E4AFB681B20111C1A1CC2
:1059B000FDF75EFC021CFB689A61FB6800221A601E
:1059C000FB6800229A80FB6800229A81FB68002213
:1059D0009A60FB680022DA81FB6800229A82FB68E9
:1059E00000221A611F4B1F4A5269802109030A4392
:1059F0005A611D4A1C49C2239B00CB589B009B083F
:105A0000802109061943C2239B00D150164B8022E6
:105A100012011A60144A80230021D150114B114AFF
:105A20001169124A0A401A61114B16221A70104B62
:105A300010225A700E4B20229A700D4B0C4A12788D
:105A4000D2B240210A43D2B21A700A4BFA685A61A4
:105A5000FB68181CBD4604B080BDC04624F3FF1F80
:105A6000CD5A00000080044000E100E0FFF7FFFF96
:105A700000700740F8F2FF1F80B584B000AFF860F7
:105A8000B960BB1D1A80FB689B8A002B01D00823DC
:105A900016E0FDF783FBFB68BA681A61FB68BA1D64
:105AA00012889A82FB680022DA81074B064A127834
:105AB000D2B220210A43D2B21A70FDF785FB00232F
:105AC000181CBD4604B080BD0070074080B584B08E
:105AD00000AF78607B68FB60334A3B1C0B33D278A5
:105AE0001A703B1C0B331B785BB2002B28DAFB6867
:105AF0009B89002B24D0FB689B68591CFA68916035
:105B0000294A5279D2B21A70FB689B8801339AB243
:105B1000FB689A80FB689A88FB689B899A420FD140
:105B2000214B214A1278D1B27F220A40D2B21A7098
:105B3000FB6800229A81FB681B6A181CFCF7EEFECA
:105B40003B1C0B331A78202313402AD0FB68DA89D8
:105B5000FB689B8A9A421CD21349FB681B69581C3C
:105B6000FA6810611B784B71FB68DB8901339AB2CC
:105B7000FB68DA81FB68DA89FB689B8A9A4210D15C
:105B8000FB6800229A82FB681B6A181CFCF7BEFEA9
:105B900007E0054B044A1278D2B220218A43D2B2E0
:105BA0001A70BD4604B080BD0070074080B584B057
:105BB00000AF78601A4BFB60FB687A689A600F2030
:105BC000FDF722FB021CFB685A60164AFB680F2097
:105BD000111C1A1CFDF74CFB021CFB681A60124BCF
:105BE00000221A60104B114A5A600F4B00229A6033
:105BF0000F4A0F49D2231B01CB589B009B088021E1
:105C0000C9051943D2231B01D150074B06221A6044
:105C1000084BFA681A60FB68181CBD4604B080BDCA
:105C200048F3FF1FC55C000010E000E07FA90300FF
:105C300000E000E0F8F2FF1F80B582B000AF7860AE
:105C4000054B054A126801210A431A600023181CFB
:105C5000BD4602B080BDC04610E000E080B582B015
:105C600000AF7860024B181CBD4602B080BDC04634
:105C7000006CDC0280B584B000AF786039600A4BFC
:105C80005B68FB60FB680133FB603B68FA681A6085
:105C90003B681B681B021A0A3B681A600023181C29
:105CA000BD4604B080BDC04610E000E080B582B0C3
:105CB00000AF7860024B9B68181CBD4602B080BDE7
:105CC00010E000E080B584B000AF78607B68FB60D6
:105CD000064B064A1168064A0A401A60FB689B6830
:105CE000181CFFF7E7FDBD4604B080BD10E000E0E2
:105CF000FFFFFEFF80B500AF044B1A68044B101C79
:105D0000191C0122FEF7B8FCBD4680BD9C15002081
:105D100024F4FF1F80B584B000AF78603B1C0F33C4
:105D200000221A702D4B1B88002B4DD03B1C0E33CC
:105D3000EFF3108072B61870294B1B78DBB2013379
:105D4000DBB2274A191C1170012B04D13B1C0E3306
:105D50001A78244B1A70214B1B88013B9AB21F4BB7
:105D60001A80214B1B885A1C91B21F4A11801F4A6E
:105D7000D25C7B681A701C4B1B88C72B02D91A4B4C
:105D800000221A801A4B1B881A1C1A4B134001D090
:105D9000192300E000233A1C0F321370144B1A88A9
:105DA000154B13409AB2124B1A800D4B1B78DBB285
:105DB000013BDBB20A4A191C1170002B06D1094BBA
:105DC000187880F3108801E00A2302E03B1C0F33AF
:105DD0001B78181CBD4604B080BDC04656F3FF1F9B
:105DE000B4F0FF1F0CF5FF1F58F3FF1F5CF3FF1FFC
:105DF00054F3FF1F41080000B6F7FFFF80B588B0DD
:105E000000AFF8607A603B1C0A330A1C1A803B1C06
:105E10001E3300221A80FB68BB615CE03B1C173319
